{
  "contractName": "Election",
  "abi": [
    {
      "inputs": [],
      "payable": false,
      "stateMutability": "nonpayable",
      "type": "constructor"
    },
    {
      "constant": true,
      "inputs": [
        {
          "internalType": "uint256",
          "name": "",
          "type": "uint256"
        }
      ],
      "name": "candidates",
      "outputs": [
        {
          "internalType": "uint256",
          "name": "id",
          "type": "uint256"
        },
        {
          "internalType": "string",
          "name": "leadName",
          "type": "string"
        },
        {
          "internalType": "string",
          "name": "viceName",
          "type": "string"
        },
        {
          "internalType": "string",
          "name": "imageUrl",
          "type": "string"
        },
        {
          "internalType": "string",
          "name": "vision",
          "type": "string"
        },
        {
          "internalType": "string",
          "name": "mission",
          "type": "string"
        }
      ],
      "payable": false,
      "stateMutability": "view",
      "type": "function"
    },
    {
      "constant": true,
      "inputs": [],
      "name": "candidatesCount",
      "outputs": [
        {
          "internalType": "uint256",
          "name": "",
          "type": "uint256"
        }
      ],
      "payable": false,
      "stateMutability": "view",
      "type": "function"
    },
    {
      "constant": true,
      "inputs": [
        {
          "internalType": "string",
          "name": "",
          "type": "string"
        },
        {
          "internalType": "uint256",
          "name": "",
          "type": "uint256"
        }
      ],
      "name": "tpsData",
      "outputs": [
        {
          "internalType": "uint256",
          "name": "candidateId",
          "type": "uint256"
        },
        {
          "internalType": "address",
          "name": "voter",
          "type": "address"
        },
        {
          "internalType": "bytes32",
          "name": "previousVoteHash",
          "type": "bytes32"
        }
      ],
      "payable": false,
      "stateMutability": "view",
      "type": "function"
    },
    {
      "constant": true,
      "inputs": [
        {
          "internalType": "uint256",
          "name": "",
          "type": "uint256"
        }
      ],
      "name": "tpsIds",
      "outputs": [
        {
          "internalType": "string",
          "name": "",
          "type": "string"
        }
      ],
      "payable": false,
      "stateMutability": "view",
      "type": "function"
    },
    {
      "constant": true,
      "inputs": [
        {
          "internalType": "string",
          "name": "",
          "type": "string"
        }
      ],
      "name": "tpsTrack",
      "outputs": [
        {
          "internalType": "bool",
          "name": "",
          "type": "bool"
        }
      ],
      "payable": false,
      "stateMutability": "view",
      "type": "function"
    },
    {
      "constant": true,
      "inputs": [],
      "name": "tpsTrackCount",
      "outputs": [
        {
          "internalType": "uint256",
          "name": "",
          "type": "uint256"
        }
      ],
      "payable": false,
      "stateMutability": "view",
      "type": "function"
    },
    {
      "constant": true,
      "inputs": [],
      "name": "userCount",
      "outputs": [
        {
          "internalType": "uint256",
          "name": "",
          "type": "uint256"
        }
      ],
      "payable": false,
      "stateMutability": "view",
      "type": "function"
    },
    {
      "constant": true,
      "inputs": [
        {
          "internalType": "address",
          "name": "",
          "type": "address"
        }
      ],
      "name": "userData",
      "outputs": [
        {
          "internalType": "uint256",
          "name": "id",
          "type": "uint256"
        },
        {
          "internalType": "address",
          "name": "ethAddress",
          "type": "address"
        },
        {
          "internalType": "bool",
          "name": "isAdmin",
          "type": "bool"
        }
      ],
      "payable": false,
      "stateMutability": "view",
      "type": "function"
    },
    {
      "constant": true,
      "inputs": [
        {
          "internalType": "address",
          "name": "",
          "type": "address"
        }
      ],
      "name": "userExists",
      "outputs": [
        {
          "internalType": "bool",
          "name": "",
          "type": "bool"
        }
      ],
      "payable": false,
      "stateMutability": "view",
      "type": "function"
    },
    {
      "constant": true,
      "inputs": [
        {
          "internalType": "address",
          "name": "",
          "type": "address"
        }
      ],
      "name": "voters",
      "outputs": [
        {
          "internalType": "bool",
          "name": "",
          "type": "bool"
        }
      ],
      "payable": false,
      "stateMutability": "view",
      "type": "function"
    },
    {
      "constant": false,
      "inputs": [
        {
          "internalType": "string",
          "name": "_leadName",
          "type": "string"
        },
        {
          "internalType": "string",
          "name": "_viceName",
          "type": "string"
        },
        {
          "internalType": "string",
          "name": "_imageUrl",
          "type": "string"
        },
        {
          "internalType": "string",
          "name": "_vision",
          "type": "string"
        },
        {
          "internalType": "string",
          "name": "_mission",
          "type": "string"
        }
      ],
      "name": "addCandidate",
      "outputs": [],
      "payable": false,
      "stateMutability": "nonpayable",
      "type": "function"
    },
    {
      "constant": true,
      "inputs": [],
      "name": "getCandidates",
      "outputs": [
        {
          "components": [
            {
              "internalType": "uint256",
              "name": "id",
              "type": "uint256"
            },
            {
              "internalType": "string",
              "name": "leadName",
              "type": "string"
            },
            {
              "internalType": "string",
              "name": "viceName",
              "type": "string"
            },
            {
              "internalType": "string",
              "name": "imageUrl",
              "type": "string"
            },
            {
              "internalType": "string",
              "name": "vision",
              "type": "string"
            },
            {
              "internalType": "string",
              "name": "mission",
              "type": "string"
            }
          ],
          "internalType": "struct Election.Candidate[]",
          "name": "",
          "type": "tuple[]"
        }
      ],
      "payable": false,
      "stateMutability": "view",
      "type": "function"
    },
    {
      "constant": false,
      "inputs": [
        {
          "internalType": "address",
          "name": "_ethAddress",
          "type": "address"
        },
        {
          "internalType": "bool",
          "name": "_isAdmin",
          "type": "bool"
        }
      ],
      "name": "addUser",
      "outputs": [],
      "payable": false,
      "stateMutability": "nonpayable",
      "type": "function"
    },
    {
      "constant": false,
      "inputs": [
        {
          "internalType": "uint256",
          "name": "_candidateId",
          "type": "uint256"
        },
        {
          "internalType": "string",
          "name": "_tpsId",
          "type": "string"
        }
      ],
      "name": "vote",
      "outputs": [],
      "payable": false,
      "stateMutability": "nonpayable",
      "type": "function"
    },
    {
      "constant": true,
      "inputs": [
        {
          "internalType": "string",
          "name": "_tpsId",
          "type": "string"
        }
      ],
      "name": "validateVotes",
      "outputs": [
        {
          "internalType": "bool",
          "name": "",
          "type": "bool"
        }
      ],
      "payable": false,
      "stateMutability": "view",
      "type": "function"
    },
    {
      "constant": true,
      "inputs": [
        {
          "internalType": "uint256",
          "name": "_page",
          "type": "uint256"
        }
      ],
      "name": "getUsers",
      "outputs": [
        {
          "components": [
            {
              "internalType": "uint256",
              "name": "id",
              "type": "uint256"
            },
            {
              "internalType": "address",
              "name": "ethAddress",
              "type": "address"
            },
            {
              "internalType": "bool",
              "name": "isAdmin",
              "type": "bool"
            }
          ],
          "internalType": "struct Election.User[]",
          "name": "",
          "type": "tuple[]"
        }
      ],
      "payable": false,
      "stateMutability": "view",
      "type": "function"
    },
    {
      "constant": true,
      "inputs": [
        {
          "internalType": "address",
          "name": "_ethAddress",
          "type": "address"
        }
      ],
      "name": "getUserByAddress",
      "outputs": [
        {
          "components": [
            {
              "internalType": "uint256",
              "name": "id",
              "type": "uint256"
            },
            {
              "internalType": "address",
              "name": "ethAddress",
              "type": "address"
            },
            {
              "internalType": "bool",
              "name": "isAdmin",
              "type": "bool"
            }
          ],
          "internalType": "struct Election.User",
          "name": "",
          "type": "tuple"
        }
      ],
      "payable": false,
      "stateMutability": "view",
      "type": "function"
    },
    {
      "constant": true,
      "inputs": [],
      "name": "getWinner",
      "outputs": [
        {
          "components": [
            {
              "internalType": "uint256",
              "name": "id",
              "type": "uint256"
            },
            {
              "internalType": "string",
              "name": "leadName",
              "type": "string"
            },
            {
              "internalType": "string",
              "name": "viceName",
              "type": "string"
            },
            {
              "internalType": "string",
              "name": "imageUrl",
              "type": "string"
            },
            {
              "internalType": "string",
              "name": "vision",
              "type": "string"
            },
            {
              "internalType": "string",
              "name": "mission",
              "type": "string"
            }
          ],
          "internalType": "struct Election.Candidate",
          "name": "",
          "type": "tuple"
        }
      ],
      "payable": false,
      "stateMutability": "view",
      "type": "function"
    }
  ],
  "bytecode": "0x608060405234801561001057600080fd5b50600060018190555060006009819055506000600481905550612ece806100386000396000f3fe608060405234801561001057600080fd5b5060043610610133576000357c0100000000000000000000000000000000000000000000000000000000900480637779a905116100bf578063a3ec138d1161008e578063a3ec138d1461032b578063a8c53b131461035b578063ab2b3a801461038b578063c8910913146103a7578063f0b53d77146103d957610133565b80637779a905146102a35780637e5047e0146102d35780638e7ea5b2146102f1578063945ddfb91461030f57610133565b8063241084751161010657806324108475146101d45780632d35a8a2146101f05780633477ee2e1461020e5780635d73ab9a1461024357806369c212f61461027357610133565b806306a49fce14610138578063070a3d2b1461015657806307973ccf146101865780630e666e49146101a4575b600080fd5b61014061040b565b60405161014d9190612992565b60405180910390f35b610170600480360361016b91908101906122aa565b6107dd565b60405161017d91906129f1565b60405180910390f35b61018e610896565b60405161019b9190612ad0565b60405180910390f35b6101be60048036036101b99190810190612080565b61089c565b6040516101cb91906129d6565b60405180910390f35b6101ee60048036036101e991908101906122d3565b6108bc565b005b6101f8610c5f565b6040516102059190612ad0565b60405180910390f35b610228600480360361022391908101906122aa565b610c65565b60405161023a96959493929190612b59565b60405180910390f35b61025d600480360361025891908101906122aa565b610f99565b60405161026a91906129b4565b60405180910390f35b61028d60048036036102889190810190612080565b6111c7565b60405161029a9190612ab5565b60405180910390f35b6102bd60048036036102b89190810190612126565b61129b565b6040516102ca91906129d6565b60405180910390f35b6102db611409565b6040516102e89190612ad0565b60405180910390f35b6102f961140f565b6040516103069190612a93565b60405180910390f35b61032960048036036103249190810190612167565b611958565b005b61034560048036036103409190810190612080565b611a52565b60405161035291906129d6565b60405180910390f35b610375600480360361037091908101906120e5565b611a72565b60405161038291906129d6565b60405180910390f35b6103a560048036036103a091908101906120a9565b611aa8565b005b6103c160048036036103bc9190810190612080565b611c8b565b6040516103d093929190612aeb565b60405180910390f35b6103f360048036036103ee9190810190612256565b611ce2565b60405161040293929190612b22565b60405180910390f35b60608060015460405190808252806020026020018201604052801561044a57816020015b610437611d5c565b81526020019060019003908161042f5790505b5090506000600190505b60015481116107d5576000808281526020019081526020016000206040518060c001604052908160008201548152602001600182018054600181600116156101000203166002900480601f01602080910402602001604051908101604052809291908181526020018280546001816001161561010002031660029004801561051d5780601f106104f25761010080835404028352916020019161051d565b820191906000526020600020905b81548152906001019060200180831161050057829003601f168201915b50505050508152602001600282018054600181600116156101000203166002900480601f0160208091040260200160405190810160405280929190818152602001828054600181600116156101000203166002900480156105bf5780601f10610594576101008083540402835291602001916105bf565b820191906000526020600020905b8154815290600101906020018083116105a257829003601f168201915b50505050508152602001600382018054600181600116156101000203166002900480601f0160208091040260200160405190810160405280929190818152602001828054600181600116156101000203166002900480156106615780601f1061063657610100808354040283529160200191610661565b820191906000526020600020905b81548152906001019060200180831161064457829003601f168201915b50505050508152602001600482018054600181600116156101000203166002900480601f0160208091040260200160405190810160405280929190818152602001828054600181600116156101000203166002900480156107035780601f106106d857610100808354040283529160200191610703565b820191906000526020600020905b8154815290600101906020018083116106e657829003601f168201915b50505050508152602001600582018054600181600116156101000203166002900480601f0160208091040260200160405190810160405280929190818152602001828054600181600116156101000203166002900480156107a55780601f1061077a576101008083540402835291602001916107a5565b820191906000526020600020905b81548152906001019060200180831161078857829003601f168201915b5050505050815250508260018303815181106107bd57fe5b60200260200101819052508080600101915050610454565b508091505090565b600581815481106107ea57fe5b906000526020600020016000915090508054600181600116156101000203166002900480601f01602080910402602001604051908101604052809291908181526020018280546001816001161561010002031660029004801561088e5780601f106108635761010080835404028352916020019161088e565b820191906000526020600020905b81548152906001019060200180831161087157829003601f168201915b505050505081565b60095481565b60076020528060005260406000206000915054906101000a900460ff1681565b600860003373ffffffffffffffffffffffffffffffffffffffff1673ffffffffffffffffffffffffffffffffffffffff16815260200190815260200160002060009054906101000a900460ff1615610949576040517f08c379a000000000000000000000000000000000000000000000000000000000815260040161094090612a73565b60405180910390fd5b60008211801561095b57506001548211155b61099a576040517f08c379a000000000000000000000000000000000000000000000000000000000815260040161099190612a53565b60405180910390fd5b600080600102905060006002836040516109b491906128ea565b9081526020016040518091039020805490501115610a2e576002826040516109dc91906128ea565b908152602001604051809103902060016002846040516109fc91906128ea565b9081526020016040518091039020805490500381548110610a1957fe5b90600052602060002090600302016002015490505b6000833383604051602001610a4593929190612918565b604051602081830303815290604052805190602001209050610a65611d92565b60405180606001604052808681526020013373ffffffffffffffffffffffffffffffffffffffff16815260200184815250905060011515600385604051610aac91906128ea565b908152602001604051809103902060009054906101000a900460ff16151514610b58576001600385604051610ae191906128ea565b908152602001604051809103902060006101000a81548160ff0219169083151502179055506005849080600181540180825580915050906001820390600052602060002001600090919290919091509080519060200190610b43929190611dcc565b50506004600081548092919060010191905055505b600284604051610b6891906128ea565b908152602001604051809103902081908060018154018082558091505090600182039060005260206000209060030201600090919290919091506000820151816000015560208201518160010160006101000a81548173ffffffffffffffffffffffffffffffffffffffff021916908373ffffffffffffffffffffffffffffffffffffffff160217905550604082015181600201555050506001600860003373ffffffffffffffffffffffffffffffffffffffff1673ffffffffffffffffffffffffffffffffffffffff16815260200190815260200160002060006101000a81548160ff0219169083151502179055505050505050565b60015481565b6000602052806000526040600020600091509050806000015490806001018054600181600116156101000203166002900480601f016020809104026020016040519081016040528092919081815260200182805460018160011615610100020316600290048015610d175780601f10610cec57610100808354040283529160200191610d17565b820191906000526020600020905b815481529060010190602001808311610cfa57829003601f168201915b505050505090806002018054600181600116156101000203166002900480601f016020809104026020016040519081016040528092919081815260200182805460018160011615610100020316600290048015610db55780601f10610d8a57610100808354040283529160200191610db5565b820191906000526020600020905b815481529060010190602001808311610d9857829003601f168201915b505050505090806003018054600181600116156101000203166002900480601f016020809104026020016040519081016040528092919081815260200182805460018160011615610100020316600290048015610e535780601f10610e2857610100808354040283529160200191610e53565b820191906000526020600020905b815481529060010190602001808311610e3657829003601f168201915b505050505090806004018054600181600116156101000203166002900480601f016020809104026020016040519081016040528092919081815260200182805460018160011615610100020316600290048015610ef15780601f10610ec657610100808354040283529160200191610ef1565b820191906000526020600020905b815481529060010190602001808311610ed457829003601f168201915b505050505090806005018054600181600116156101000203166002900480601f016020809104026020016040519081016040528092919081815260200182805460018160011615610100020316600290048015610f8f5780601f10610f6457610100808354040283529160200191610f8f565b820191906000526020600020905b815481529060010190602001808311610f7257829003601f168201915b5050505050905086565b60606000600f600184030290506000600f82019050600954811115610fbe5760095490505b6060828203604051908082528060200260200182016040528015610ffc57816020015b610fe9611e4c565b815260200190600190039081610fe15790505b509050600080905060006001850190505b8381116111ba5760076000600660008473ffffffffffffffffffffffffffffffffffffffff1673ffffffffffffffffffffffffffffffffffffffff16815260200190815260200160002060010160009054906101000a900473ffffffffffffffffffffffffffffffffffffffff1673ffffffffffffffffffffffffffffffffffffffff1673ffffffffffffffffffffffffffffffffffffffff16815260200190815260200160002060009054906101000a900460ff16156111ad57600660008273ffffffffffffffffffffffffffffffffffffffff1673ffffffffffffffffffffffffffffffffffffffff168152602001908152602001600020604051806060016040529081600082015481526020016001820160009054906101000a900473ffffffffffffffffffffffffffffffffffffffff1673ffffffffffffffffffffffffffffffffffffffff1673ffffffffffffffffffffffffffffffffffffffff1681526020016001820160149054906101000a900460ff16151515158152505083838151811061119957fe5b602002602001018190525081806001019250505b808060010191505061100d565b5081945050505050919050565b6111cf611e85565b600660008373ffffffffffffffffffffffffffffffffffffffff1673ffffffffffffffffffffffffffffffffffffffff168152602001908152602001600020604051806060016040529081600082015481526020016001820160009054906101000a900473ffffffffffffffffffffffffffffffffffffffff1673ffffffffffffffffffffffffffffffffffffffff1673ffffffffffffffffffffffffffffffffffffffff1681526020016001820160149054906101000a900460ff1615151515815250509050919050565b6000806002836040516112ae91906128ea565b9081526020016040518091039020805490509050600080905060008090505b828110156113f5576112dd611d92565b6002866040516112ed91906128ea565b9081526020016040518091039020828154811061130657fe5b9060005260206000209060030201604051806060016040529081600082015481526020016001820160009054906101000a900473ffffffffffffffffffffffffffffffffffffffff1673ffffffffffffffffffffffffffffffffffffffff1673ffffffffffffffffffffffffffffffffffffffff168152602001600282015481525050905060008160000151826020015183604001516040516020016113ae93929190612955565b60405160208183030381529060405280519060200120905081604001518114806113d85750600083145b156113e65783806001019450505b505080806001019150506112cd565b506033820260648202101592505050919050565b60045481565b611417611ebe565b6000809050611424611ebe565b6000600190505b600154811161194f57600080905060008090505b6004548110156115e15760006005828154811061145857fe5b90600052602060002001905060006002826040516114769190612901565b908152602001604051809103902080549050905061152c828054600181600116156101000203166002900480601f0160208091040260200160405190810160405280929190818152602001828054600181600116156101000203166002900480156115225780601f106114f757610100808354040283529160200191611522565b820191906000526020600020905b81548152906001019060200180831161150557829003601f168201915b505050505061129b565b61156b576040517f08c379a000000000000000000000000000000000000000000000000000000000815260040161156290612a33565b60405180910390fd5b60008090505b818110156115d1578560028460405161158a9190612901565b908152602001604051809103902082815481106115a357fe5b90600052602060002090600302016000015414156115c45784806001019550505b8080600101915050611571565b505050808060010191505061143f565b5083811115611941578093506000808381526020019081526020016000206040518060c001604052908160008201548152602001600182018054600181600116156101000203166002900480601f0160208091040260200160405190810160405280929190818152602001828054600181600116156101000203166002900480156116ad5780601f10611682576101008083540402835291602001916116ad565b820191906000526020600020905b81548152906001019060200180831161169057829003601f168201915b50505050508152602001600282018054600181600116156101000203166002900480601f01602080910402602001604051908101604052809291908181526020018280546001816001161561010002031660029004801561174f5780601f106117245761010080835404028352916020019161174f565b820191906000526020600020905b81548152906001019060200180831161173257829003601f168201915b50505050508152602001600382018054600181600116156101000203166002900480601f0160208091040260200160405190810160405280929190818152602001828054600181600116156101000203166002900480156117f15780601f106117c6576101008083540402835291602001916117f1565b820191906000526020600020905b8154815290600101906020018083116117d457829003601f168201915b50505050508152602001600482018054600181600116156101000203166002900480601f0160208091040260200160405190810160405280929190818152602001828054600181600116156101000203166002900480156118935780601f1061186857610100808354040283529160200191611893565b820191906000526020600020905b81548152906001019060200180831161187657829003601f168201915b50505050508152602001600582018054600181600116156101000203166002900480601f0160208091040260200160405190810160405280929190818152602001828054600181600116156101000203166002900480156119355780601f1061190a57610100808354040283529160200191611935565b820191906000526020600020905b81548152906001019060200180831161191857829003601f168201915b50505050508152505092505b50808060010191505061142b565b50809250505090565b6001600081548092919060010191905055506040518060c0016040528060015481526020018681526020018581526020018481526020018381526020018281525060008060015481526020019081526020016000206000820151816000015560208201518160010190805190602001906119d3929190611ef4565b5060408201518160020190805190602001906119f0929190611ef4565b506060820151816003019080519060200190611a0d929190611ef4565b506080820151816004019080519060200190611a2a929190611ef4565b5060a0820151816005019080519060200190611a47929190611ef4565b509050505050505050565b60086020528060005260406000206000915054906101000a900460ff1681565b6003818051602081018201805184825260208301602085012081835280955050505050506000915054906101000a900460ff1681565b600760008373ffffffffffffffffffffffffffffffffffffffff1673ffffffffffffffffffffffffffffffffffffffff16815260200190815260200160002060009054906101000a900460ff1615611b35576040517f08c379a0000000000000000000000000000000000000000000000000000000008152600401611b2c90612a13565b60405180910390fd5b600960008154809291906001019190505550604051806060016040528060095481526020018373ffffffffffffffffffffffffffffffffffffffff168152602001821515815250600660008473ffffffffffffffffffffffffffffffffffffffff1673ffffffffffffffffffffffffffffffffffffffff1681526020019081526020016000206000820151816000015560208201518160010160006101000a81548173ffffffffffffffffffffffffffffffffffffffff021916908373ffffffffffffffffffffffffffffffffffffffff16021790555060408201518160010160146101000a81548160ff0219169083151502179055509050506001600760008473ffffffffffffffffffffffffffffffffffffffff1673ffffffffffffffffffffffffffffffffffffffff16815260200190815260200160002060006101000a81548160ff0219169083151502179055505050565b60066020528060005260406000206000915090508060000154908060010160009054906101000a900473ffffffffffffffffffffffffffffffffffffffff16908060010160149054906101000a900460ff16905083565b6002828051602081018201805184825260208301602085012081835280955050505050508181548110611d1157fe5b9060005260206000209060030201600091509150508060000154908060010160009054906101000a900473ffffffffffffffffffffffffffffffffffffffff16908060020154905083565b6040518060c001604052806000815260200160608152602001606081526020016060815260200160608152602001606081525090565b604051806060016040528060008152602001600073ffffffffffffffffffffffffffffffffffffffff168152602001600080191681525090565b828054600181600116156101000203166002900490600052602060002090601f016020900481019282601f10611e0d57805160ff1916838001178555611e3b565b82800160010185558215611e3b579182015b82811115611e3a578251825591602001919060010190611e1f565b5b509050611e489190611f74565b5090565b604051806060016040528060008152602001600073ffffffffffffffffffffffffffffffffffffffff1681526020016000151581525090565b604051806060016040528060008152602001600073ffffffffffffffffffffffffffffffffffffffff1681526020016000151581525090565b6040518060c001604052806000815260200160608152602001606081526020016060815260200160608152602001606081525090565b828054600181600116156101000203166002900490600052602060002090601f016020900481019282601f10611f3557805160ff1916838001178555611f63565b82800160010185558215611f63579182015b82811115611f62578251825591602001919060010190611f47565b5b509050611f709190611f74565b5090565b611f9691905b80821115611f92576000816000905550600101611f7a565b5090565b90565b600081359050611fa881612e46565b92915050565b600081359050611fbd81612e5d565b92915050565b600082601f830112611fd457600080fd5b8135611fe7611fe282612c0a565b612bdd565b9150808252602083016020830185838301111561200357600080fd5b61200e838284612d90565b50505092915050565b600082601f83011261202857600080fd5b813561203b61203682612c36565b612bdd565b9150808252602083016020830185838301111561205757600080fd5b612062838284612d90565b50505092915050565b60008135905061207a81612e74565b92915050565b60006020828403121561209257600080fd5b60006120a084828501611f99565b91505092915050565b600080604083850312156120bc57600080fd5b60006120ca85828601611f99565b92505060206120db85828601611fae565b9150509250929050565b6000602082840312156120f757600080fd5b600082013567ffffffffffffffff81111561211157600080fd5b61211d84828501611fc3565b91505092915050565b60006020828403121561213857600080fd5b600082013567ffffffffffffffff81111561215257600080fd5b61215e84828501612017565b91505092915050565b600080600080600060a0868803121561217f57600080fd5b600086013567ffffffffffffffff81111561219957600080fd5b6121a588828901612017565b955050602086013567ffffffffffffffff8111156121c257600080fd5b6121ce88828901612017565b945050604086013567ffffffffffffffff8111156121eb57600080fd5b6121f788828901612017565b935050606086013567ffffffffffffffff81111561221457600080fd5b61222088828901612017565b925050608086013567ffffffffffffffff81111561223d57600080fd5b61224988828901612017565b9150509295509295909350565b6000806040838503121561226957600080fd5b600083013567ffffffffffffffff81111561228357600080fd5b61228f85828601611fc3565b92505060206122a08582860161206b565b9150509250929050565b6000602082840312156122bc57600080fd5b60006122ca8482850161206b565b91505092915050565b600080604083850312156122e657600080fd5b60006122f48582860161206b565b925050602083013567ffffffffffffffff81111561231157600080fd5b61231d85828601612017565b9150509250929050565b6000612333838361278c565b905092915050565b60006123478383612873565b60608301905092915050565b61236461235f82612d3e565b612de4565b82525050565b61237381612d2c565b82525050565b61238281612d2c565b82525050565b61239961239482612d2c565b612dd2565b82525050565b60006123aa82612c97565b6123b48185612cdd565b9350836020820285016123c685612c62565b8060005b8581101561240257848403895281516123e38582612327565b94506123ee83612cc3565b925060208a019950506001810190506123ca565b50829750879550505050505092915050565b600061241f82612ca2565b6124298185612cee565b935061243483612c72565b8060005b8381101561246557815161244c888261233b565b975061245783612cd0565b925050600181019050612438565b5085935050505092915050565b61247b81612d50565b82525050565b61248a81612d50565b82525050565b61249981612d5c565b82525050565b6124b06124ab82612d5c565b612df6565b82525050565b60006124c182612cb8565b6124cb8185612d21565b93506124db818560208601612d9f565b80840191505092915050565b60006124f282612cad565b6124fc8185612cff565b935061250c818560208601612d9f565b61251581612e1c565b840191505092915050565b600061252b82612cad565b6125358185612d10565b9350612545818560208601612d9f565b61254e81612e1c565b840191505092915050565b600081546001811660008114612576576001811461259b576125df565b607f60028304166125878187612d21565b955060ff19831686528086019350506125df565b600282046125a98187612d21565b95506125b485612c82565b60005b828110156125d6578154818901526001820191506020810190506125b7565b82880195505050505b505092915050565b60006125f4601383612d10565b91507f5573657220616c726561647920657869737473000000000000000000000000006000830152602082019050919050565b6000612634601d83612d10565b91507f496e76616c696420766f74657320646574656374656420696e205450530000006000830152602082019050919050565b6000612674601483612d10565b91507f496e76616c69642063616e6469646174652049440000000000000000000000006000830152602082019050919050565b60006126b4601683612d10565b91507f596f75206861766520616c726561647920766f746564000000000000000000006000830152602082019050919050565b600060c0830160008301516126ff60008601826128b5565b506020830151848203602086015261271782826124e7565b9150506040830151848203604086015261273182826124e7565b9150506060830151848203606086015261274b82826124e7565b9150506080830151848203608086015261276582826124e7565b91505060a083015184820360a086015261277f82826124e7565b9150508091505092915050565b600060c0830160008301516127a460008601826128b5565b50602083015184820360208601526127bc82826124e7565b915050604083015184820360408601526127d682826124e7565b915050606083015184820360608601526127f082826124e7565b9150506080830151848203608086015261280a82826124e7565b91505060a083015184820360a086015261282482826124e7565b9150508091505092915050565b60608201600082015161284760008501826128b5565b50602082015161285a602085018261236a565b50604082015161286d6040850182612472565b50505050565b60608201600082015161288960008501826128b5565b50602082015161289c602085018261236a565b5060408201516128af6040850182612472565b50505050565b6128be81612d86565b82525050565b6128cd81612d86565b82525050565b6128e46128df82612d86565b612e12565b82525050565b60006128f682846124b6565b915081905092915050565b600061290d8284612559565b915081905092915050565b600061292482866128d3565b6020820191506129348285612353565b601482019150612944828461249f565b602082019150819050949350505050565b600061296182866128d3565b6020820191506129718285612388565b601482019150612981828461249f565b602082019150819050949350505050565b600060208201905081810360008301526129ac818461239f565b905092915050565b600060208201905081810360008301526129ce8184612414565b905092915050565b60006020820190506129eb6000830184612481565b92915050565b60006020820190508181036000830152612a0b8184612520565b905092915050565b60006020820190508181036000830152612a2c816125e7565b9050919050565b60006020820190508181036000830152612a4c81612627565b9050919050565b60006020820190508181036000830152612a6c81612667565b9050919050565b60006020820190508181036000830152612a8c816126a7565b9050919050565b60006020820190508181036000830152612aad81846126e7565b905092915050565b6000606082019050612aca6000830184612831565b92915050565b6000602082019050612ae560008301846128c4565b92915050565b6000606082019050612b0060008301866128c4565b612b0d6020830185612379565b612b1a6040830184612481565b949350505050565b6000606082019050612b3760008301866128c4565b612b446020830185612379565b612b516040830184612490565b949350505050565b600060c082019050612b6e60008301896128c4565b8181036020830152612b808188612520565b90508181036040830152612b948187612520565b90508181036060830152612ba88186612520565b90508181036080830152612bbc8185612520565b905081810360a0830152612bd08184612520565b9050979650505050505050565b6000604051905081810181811067ffffffffffffffff82111715612c0057600080fd5b8060405250919050565b600067ffffffffffffffff821115612c2157600080fd5b601f19601f8301169050602081019050919050565b600067ffffffffffffffff821115612c4d57600080fd5b601f19601f8301169050602081019050919050565b6000819050602082019050919050565b6000819050602082019050919050565b60008190508160005260206000209050919050565b600081519050919050565b600081519050919050565b600081519050919050565b600081519050919050565b6000602082019050919050565b6000602082019050919050565b600082825260208201905092915050565b600082825260208201905092915050565b600082825260208201905092915050565b600082825260208201905092915050565b600081905092915050565b6000612d3782612d66565b9050919050565b6000612d4982612d66565b9050919050565b60008115159050919050565b6000819050919050565b600073ffffffffffffffffffffffffffffffffffffffff82169050919050565b6000819050919050565b82818337600083830152505050565b60005b83811015612dbd578082015181840152602081019050612da2565b83811115612dcc576000848401525b50505050565b6000612ddd82612e00565b9050919050565b6000612def82612e00565b9050919050565b6000819050919050565b6000612e0b82612e2d565b9050919050565b6000819050919050565b6000601f19601f8301169050919050565b60006c0100000000000000000000000082029050919050565b612e4f81612d2c565b8114612e5a57600080fd5b50565b612e6681612d50565b8114612e7157600080fd5b50565b612e7d81612d86565b8114612e8857600080fd5b5056fea365627a7a723158209438a380dc7bd8f7a58249cf9a64a7eda4ed7a1bcd3f7088df60e6474cd35c9b6c6578706572696d656e74616cf564736f6c63430005100040",
  "source": "// SPDX-License-Identifier: MIT\r\npragma solidity >=0.4.22 <0.9.0;\r\npragma experimental ABIEncoderV2;\r\n\r\ncontract Election {\r\n    uint256 constant private PAGE_SIZE = 15;\r\n\r\n    struct Candidate {\r\n        uint256 id;\r\n        string leadName;\r\n        string viceName;\r\n        string imageUrl;\r\n        string vision;\r\n        string mission;\r\n    }\r\n\r\n    struct Vote {\r\n        uint256 candidateId;\r\n        address voter;\r\n        bytes32 previousVoteHash;\r\n    }\r\n\r\n    struct User {\r\n        uint256 id;\r\n        address ethAddress;\r\n        bool isAdmin;\r\n    }\r\n\r\n    mapping(uint256 => Candidate) public candidates;\r\n    uint256 public candidatesCount;\r\n\r\n    mapping(string => Vote[]) public tpsData;\r\n    mapping(string => bool) public tpsTrack;\r\n    uint256 public tpsTrackCount;\r\n    string[] public tpsIds;\r\n    mapping(address => User) public userData;\r\n    mapping(address => bool) public userExists;\r\n    mapping(address => bool) public voters; // Global voters mapping\r\n\r\n    uint256 public userCount;\r\n\r\n    constructor() public {\r\n        candidatesCount = 0;\r\n        userCount = 0;\r\n        tpsTrackCount = 0;\r\n    }\r\n\r\n    function addCandidate(\r\n        string memory _leadName,\r\n        string memory _viceName,\r\n        string memory _imageUrl,\r\n        string memory _vision,\r\n        string memory _mission\r\n    ) public {\r\n        candidatesCount++;\r\n        candidates[candidatesCount] = Candidate(candidatesCount, _leadName, _viceName, _imageUrl, _vision, _mission);\r\n    }\r\n\r\n    function getCandidates() public view returns (Candidate[] memory) {\r\n        Candidate[] memory candidateList = new Candidate[](candidatesCount);\r\n\r\n        for (uint256 i = 1; i <= candidatesCount; i++) {\r\n            candidateList[i - 1] = candidates[i];\r\n        }\r\n\r\n        return candidateList;\r\n    }\r\n\r\n    function addUser(address _ethAddress, bool _isAdmin) public {\r\n        require(!userExists[_ethAddress], \"User already exists\");\r\n        userCount++;\r\n        userData[_ethAddress] = User(userCount, _ethAddress, _isAdmin);\r\n        userExists[_ethAddress] = true;\r\n    }\r\n\r\n    function vote(uint256 _candidateId, string memory _tpsId) public {\r\n        require(!voters[msg.sender], \"You have already voted\"); // Global check\r\n        require(_candidateId > 0 && _candidateId <= candidatesCount, \"Invalid candidate ID\");\r\n\r\n        bytes32 previousVoteHash = bytes32(0);\r\n        if (tpsData[_tpsId].length > 0) {\r\n            previousVoteHash = tpsData[_tpsId][tpsData[_tpsId].length - 1].previousVoteHash;\r\n        }\r\n\r\n        bytes32 currentVoteHash = keccak256(abi.encodePacked(_candidateId, msg.sender, previousVoteHash));\r\n        Vote memory newVote = Vote({\r\n            candidateId: _candidateId,\r\n            voter: msg.sender,\r\n            previousVoteHash: previousVoteHash\r\n        });\r\n\r\n        if (tpsTrack[_tpsId] != true) {\r\n            tpsTrack[_tpsId] = true;\r\n            tpsIds.push(_tpsId);\r\n            tpsTrackCount++;\r\n        }\r\n\r\n        tpsData[_tpsId].push(newVote);\r\n        voters[msg.sender] = true; // Mark voter as having voted globally\r\n    }\r\n\r\n\r\n    function validateVotes(string memory _tpsId) public view returns (bool) {\r\n        uint256 voteCount = tpsData[_tpsId].length;\r\n        uint256 validVotes = 0;\r\n\r\n        for (uint256 i = 0; i < voteCount; i++) {\r\n            Vote memory currentVote = tpsData[_tpsId][i];\r\n            bytes32 calculatedHash = keccak256(abi.encodePacked(currentVote.candidateId, currentVote.voter, currentVote.previousVoteHash));\r\n\r\n            if (calculatedHash == currentVote.previousVoteHash || i == 0) {\r\n                validVotes++;\r\n            }\r\n        }\r\n\r\n        return (validVotes * 100) >= (voteCount * 51); // Check if valid votes are more than 51% of total votes\r\n    }\r\n\r\n    function getUsers(uint256 _page) public view returns (User[] memory) {\r\n        uint256 startIndex = (_page - 1) * PAGE_SIZE;\r\n        uint256 endIndex = startIndex + PAGE_SIZE;\r\n        if (endIndex > userCount) {\r\n            endIndex = userCount;\r\n        }\r\n\r\n        User[] memory userList = new User[](endIndex - startIndex);\r\n        uint256 index = 0;\r\n\r\n        for (uint256 i = startIndex + 1; i <= endIndex; i++) {\r\n            if (userExists[userData[address(i)].ethAddress]) {\r\n                userList[index] = userData[address(i)];\r\n                index++;\r\n            }\r\n        }\r\n        return userList;\r\n    }\r\n\r\n    function getUserByAddress(address _ethAddress) public view returns (User memory) {\r\n        return userData[_ethAddress];\r\n    }\r\n\r\n    function getWinner() public view returns (Candidate memory) {\r\n        uint256 maxVotes = 0;\r\n        Candidate memory winningCandidate;\r\n\r\n        // Loop through each candidate\r\n        for (uint256 i = 1; i <= candidatesCount; i++) {\r\n            uint256 candidateVotes = 0;\r\n\r\n            // Loop through each TPS\r\n            for (uint256 j = 0; j < tpsTrackCount; j++) {\r\n                string storage tpsId = tpsIds[j];\r\n                uint256 voteCount = tpsData[tpsId].length;\r\n\r\n                // Validate votes in the TPS\r\n                if (!validateVotes(tpsId)) {\r\n                    revert(\"Invalid votes detected in TPS\");\r\n                }\r\n\r\n                // Calculate the vote count for the candidate in this TPS\r\n                for (uint256 k = 0; k < voteCount; k++) {\r\n                    if (tpsData[tpsId][k].candidateId == i) {\r\n                        candidateVotes++;\r\n                    }\r\n                }\r\n            }\r\n\r\n            // Update winning candidate if necessary\r\n            if (candidateVotes > maxVotes) {\r\n                maxVotes = candidateVotes;\r\n                winningCandidate = candidates[i];\r\n            }\r\n        }\r\n\r\n        return winningCandidate;\r\n    }\r\n}",
  "sourcePath": "D:\\PENS 2022\\SEMESTER 4\\Workshop Mobile Pak Fahrul\\UAS PROJECT\\votechain\\contracts\\Election.sol",
  "compiler": {
    "name": "solc",
    "version": "0.5.16+commit.9c3226ce.Emscripten.clang"
  },
  "schemaVersion": "3.4.16",
  "updatedAt": "2024-06-13T14:11:33.974Z",
  "networkType": "ethereum",
  "devdoc": {
    "methods": {}
  },
  "userdoc": {
    "methods": {}
  }
}